{
  "contractName": "ERC721Connector",
  "abi": [
    {
      "inputs": [
        {
          "internalType": "string",
          "name": "name",
          "type": "string"
        },
        {
          "internalType": "string",
          "name": "symbol",
          "type": "string"
        }
      ],
      "stateMutability": "nonpayable",
      "type": "constructor"
    },
    {
      "anonymous": false,
      "inputs": [
        {
          "indexed": true,
          "internalType": "address",
          "name": "_owner",
          "type": "address"
        },
        {
          "indexed": true,
          "internalType": "address",
          "name": "_approved",
          "type": "address"
        },
        {
          "indexed": true,
          "internalType": "uint256",
          "name": "_tokenId",
          "type": "uint256"
        }
      ],
      "name": "Approval",
      "type": "event"
    },
    {
      "anonymous": false,
      "inputs": [
        {
          "indexed": true,
          "internalType": "address",
          "name": "_from",
          "type": "address"
        },
        {
          "indexed": true,
          "internalType": "address",
          "name": "_to",
          "type": "address"
        },
        {
          "indexed": true,
          "internalType": "uint256",
          "name": "_tokenId",
          "type": "uint256"
        }
      ],
      "name": "Transfer",
      "type": "event"
    },
    {
      "inputs": [
        {
          "internalType": "address",
          "name": "_owner",
          "type": "address"
        }
      ],
      "name": "balanceOf",
      "outputs": [
        {
          "internalType": "uint256",
          "name": "",
          "type": "uint256"
        }
      ],
      "stateMutability": "view",
      "type": "function"
    },
    {
      "inputs": [],
      "name": "name",
      "outputs": [
        {
          "internalType": "string",
          "name": "",
          "type": "string"
        }
      ],
      "stateMutability": "view",
      "type": "function"
    },
    {
      "inputs": [
        {
          "internalType": "uint256",
          "name": "_tokenId",
          "type": "uint256"
        }
      ],
      "name": "ownerOf",
      "outputs": [
        {
          "internalType": "address",
          "name": "",
          "type": "address"
        }
      ],
      "stateMutability": "view",
      "type": "function"
    },
    {
      "inputs": [
        {
          "internalType": "bytes4",
          "name": "interfaceID",
          "type": "bytes4"
        }
      ],
      "name": "supportsInterface",
      "outputs": [
        {
          "internalType": "bool",
          "name": "",
          "type": "bool"
        }
      ],
      "stateMutability": "view",
      "type": "function"
    },
    {
      "inputs": [],
      "name": "symbol",
      "outputs": [
        {
          "internalType": "string",
          "name": "",
          "type": "string"
        }
      ],
      "stateMutability": "view",
      "type": "function"
    },
    {
      "inputs": [
        {
          "internalType": "uint256",
          "name": "index",
          "type": "uint256"
        }
      ],
      "name": "tokenByIndex",
      "outputs": [
        {
          "internalType": "uint256",
          "name": "",
          "type": "uint256"
        }
      ],
      "stateMutability": "view",
      "type": "function"
    },
    {
      "inputs": [
        {
          "internalType": "address",
          "name": "owner",
          "type": "address"
        },
        {
          "internalType": "uint256",
          "name": "index",
          "type": "uint256"
        }
      ],
      "name": "tokenOfOwnerByIndex",
      "outputs": [
        {
          "internalType": "uint256",
          "name": "",
          "type": "uint256"
        }
      ],
      "stateMutability": "view",
      "type": "function"
    },
    {
      "inputs": [],
      "name": "totalSupply",
      "outputs": [
        {
          "internalType": "uint256",
          "name": "",
          "type": "uint256"
        }
      ],
      "stateMutability": "view",
      "type": "function"
    },
    {
      "inputs": [
        {
          "internalType": "address",
          "name": "_from",
          "type": "address"
        },
        {
          "internalType": "address",
          "name": "_to",
          "type": "address"
        },
        {
          "internalType": "uint256",
          "name": "_tokenId",
          "type": "uint256"
        }
      ],
      "name": "transferFrom",
      "outputs": [],
      "stateMutability": "nonpayable",
      "type": "function"
    }
  ],
  "bytecode": "0x60806040523480156200001157600080fd5b50604051620018543803806200185483398181016040528101906200003791906200043f565b81816200006a7f01ffc9a7a5cef8baa21ed3c5c0d7e23accb804b619e9333b597f47a0d84076e2620001d560201b60201c565b620000bd7f13b182f4c0e5b2efbac0efe6cf6d756c8b89f4b79c5707a043ed9ea740574ee97f7feaf19471f34a12a7eaf32d5f3090aa2260ea8624dc8a138e74e0bf0f62307618620001d560201b60201c565b8160019081620000ce91906200070f565b508060029081620000e091906200070f565b505050620001587f22c82707ba960a14c7592ffb6b8cfaa073fed0048a84cc7fa41f6b5bd8e7f2e47f3a6eb71757dfc6e784c1459d26270140c2c147d95ca985c80026fc5301c3eca17f8a7e378434598edc36d108689a030cbc9d7d465de4f74c71bae1028eed6a881b1818620001d560201b60201c565b620001cd7f8230223f691b981717299fae9549350a0d894555723531f02108b1f522c1a7977f6da5e1284143cdd2d15038a59bde3be031250f00291d64494c12d967b3a4e0c37fc53637662700e6c65104059db8bba34439e0c32483ab7c34e3ccae52c73954951818620001d560201b60201c565b50506200089f565b63ffffffff60e01b817bffffffffffffffffffffffffffffffffffffffffffffffffffffffff19160362000240576040517f08c379a000000000000000000000000000000000000000000000000000000000815260040162000237906200087d565b60405180910390fd5b6001600080837bffffffffffffffffffffffffffffffffffffffffffffffffffffffff19167bffffffffffffffffffffffffffffffffffffffffffffffffffffffff1916815260200190815260200160002060006101000a81548160ff02191690831515021790555050565b6000604051905090565b600080fd5b600080fd5b600080fd5b600080fd5b6000601f19601f8301169050919050565b7f4e487b7100000000000000000000000000000000000000000000000000000000600052604160045260246000fd5b6200031582620002ca565b810181811067ffffffffffffffff82111715620003375762000336620002db565b5b80604052505050565b60006200034c620002ac565b90506200035a82826200030a565b919050565b600067ffffffffffffffff8211156200037d576200037c620002db565b5b6200038882620002ca565b9050602081019050919050565b60005b83811015620003b557808201518184015260208101905062000398565b60008484015250505050565b6000620003d8620003d2846200035f565b62000340565b905082815260208101848484011115620003f757620003f6620002c5565b5b6200040484828562000395565b509392505050565b600082601f830112620004245762000423620002c0565b5b815162000436848260208601620003c1565b91505092915050565b60008060408385031215620004595762000458620002b6565b5b600083015167ffffffffffffffff8111156200047a5762000479620002bb565b5b62000488858286016200040c565b925050602083015167ffffffffffffffff811115620004ac57620004ab620002bb565b5b620004ba858286016200040c565b9150509250929050565b600081519050919050565b7f4e487b7100000000000000000000000000000000000000000000000000000000600052602260045260246000fd5b600060028204905060018216806200051757607f821691505b6020821081036200052d576200052c620004cf565b5b50919050565b60008190508160005260206000209050919050565b60006020601f8301049050919050565b600082821b905092915050565b600060088302620005977fffffffffffffffffffffffffffffffffffffffffffffffffffffffffffffffff8262000558565b620005a3868362000558565b95508019841693508086168417925050509392505050565b6000819050919050565b6000819050919050565b6000620005f0620005ea620005e484620005bb565b620005c5565b620005bb565b9050919050565b6000819050919050565b6200060c83620005cf565b620006246200061b82620005f7565b84845462000565565b825550505050565b600090565b6200063b6200062c565b6200064881848462000601565b505050565b5b8181101562000670576200066460008262000631565b6001810190506200064e565b5050565b601f821115620006bf57620006898162000533565b620006948462000548565b81016020851015620006a4578190505b620006bc620006b38562000548565b8301826200064d565b50505b505050565b600082821c905092915050565b6000620006e460001984600802620006c4565b1980831691505092915050565b6000620006ff8383620006d1565b9150826002028217905092915050565b6200071a82620004c4565b67ffffffffffffffff811115620007365762000735620002db565b5b620007428254620004fe565b6200074f82828562000674565b600060209050601f83116001811462000787576000841562000772578287015190505b6200077e8582620006f1565b865550620007ee565b601f198416620007978662000533565b60005b82811015620007c1578489015182556001820191506020850194506020810190506200079a565b86831015620007e15784890151620007dd601f891682620006d1565b8355505b6001600288020188555050505b505050505050565b600082825260208201905092915050565b7f4552433136353a20496e76616c696420696e746572666163652072657175657360008201527f7400000000000000000000000000000000000000000000000000000000000000602082015250565b600062000865602183620007f6565b9150620008728262000807565b604082019050919050565b60006020820190508181036000830152620008988162000856565b9050919050565b610fa580620008af6000396000f3fe608060405234801561001057600080fd5b50600436106100935760003560e01c80632f745c59116100665780632f745c59146101205780634f6ccce7146101505780636352211e1461018057806370a08231146101b057806395d89b41146101e057610093565b806301ffc9a71461009857806306fdde03146100c857806318160ddd146100e657806323b872dd14610104575b600080fd5b6100b260048036038101906100ad91906108d1565b6101fe565b6040516100bf9190610919565b60405180910390f35b6100d0610265565b6040516100dd91906109c4565b60405180910390f35b6100ee6102f7565b6040516100fb91906109ff565b60405180910390f35b61011e60048036038101906101199190610aa4565b610304565b005b61013a60048036038101906101359190610af7565b610314565b60405161014791906109ff565b60405180910390f35b61016a60048036038101906101659190610b37565b6103c4565b60405161017791906109ff565b60405180910390f35b61019a60048036038101906101959190610b37565b610435565b6040516101a79190610b73565b60405180910390f35b6101ca60048036038101906101c59190610b8e565b6104e6565b6040516101d791906109ff565b60405180910390f35b6101e861059d565b6040516101f591906109c4565b60405180910390f35b6000806000837bffffffffffffffffffffffffffffffffffffffffffffffffffffffff19167bffffffffffffffffffffffffffffffffffffffffffffffffffffffff1916815260200190815260200160002060009054906101000a900460ff169050919050565b60606001805461027490610bea565b80601f01602080910402602001604051908101604052809291908181526020018280546102a090610bea565b80156102ed5780601f106102c2576101008083540402835291602001916102ed565b820191906000526020600020905b8154815290600101906020018083116102d057829003601f168201915b5050505050905090565b6000600680549050905090565b61030f83838361062f565b505050565b600061031f836104e6565b8210610360576040517f08c379a000000000000000000000000000000000000000000000000000000000815260040161035790610c67565b60405180910390fd5b600860008473ffffffffffffffffffffffffffffffffffffffff1673ffffffffffffffffffffffffffffffffffffffff16815260200190815260200160002082815481106103b1576103b0610c87565b5b9060005260206000200154905092915050565b60006103ce6102f7565b821061040f576040517f08c379a000000000000000000000000000000000000000000000000000000000815260040161040690610d02565b60405180910390fd5b6006828154811061042357610422610c87565b5b90600052602060002001549050919050565b6000806003600084815260200190815260200160002060009054906101000a900473ffffffffffffffffffffffffffffffffffffffff169050600073ffffffffffffffffffffffffffffffffffffffff168173ffffffffffffffffffffffffffffffffffffffff16036104dd576040517f08c379a00000000000000000000000000000000000000000000000000000000081526004016104d490610d94565b60405180910390fd5b80915050919050565b60008073ffffffffffffffffffffffffffffffffffffffff168273ffffffffffffffffffffffffffffffffffffffff1603610556576040517f08c379a000000000000000000000000000000000000000000000000000000000815260040161054d90610d94565b60405180910390fd5b600460008373ffffffffffffffffffffffffffffffffffffffff1673ffffffffffffffffffffffffffffffffffffffff168152602001908152602001600020549050919050565b6060600280546105ac90610bea565b80601f01602080910402602001604051908101604052809291908181526020018280546105d890610bea565b80156106255780601f106105fa57610100808354040283529160200191610625565b820191906000526020600020905b81548152906001019060200180831161060857829003601f168201915b5050505050905090565b600073ffffffffffffffffffffffffffffffffffffffff168273ffffffffffffffffffffffffffffffffffffffff160361069e576040517f08c379a000000000000000000000000000000000000000000000000000000000815260040161069590610e26565b60405180910390fd5b8273ffffffffffffffffffffffffffffffffffffffff166106be82610435565b73ffffffffffffffffffffffffffffffffffffffff1614610714576040517f08c379a000000000000000000000000000000000000000000000000000000000815260040161070b90610eb8565b60405180910390fd5b816003600083815260200190815260200160002060006101000a81548173ffffffffffffffffffffffffffffffffffffffff021916908373ffffffffffffffffffffffffffffffffffffffff1602179055506001600460008573ffffffffffffffffffffffffffffffffffffffff1673ffffffffffffffffffffffffffffffffffffffff16815260200190815260200160002060008282546107b69190610f07565b925050819055506001600460008473ffffffffffffffffffffffffffffffffffffffff1673ffffffffffffffffffffffffffffffffffffffff168152602001908152602001600020600082825461080d9190610f3b565b92505081905550808273ffffffffffffffffffffffffffffffffffffffff168473ffffffffffffffffffffffffffffffffffffffff167fddf252ad1be2c89b69c2b068fc378daa952ba7f163c4a11628f55a4df523b3ef60405160405180910390a4505050565b600080fd5b60007fffffffff0000000000000000000000000000000000000000000000000000000082169050919050565b6108ae81610879565b81146108b957600080fd5b50565b6000813590506108cb816108a5565b92915050565b6000602082840312156108e7576108e6610874565b5b60006108f5848285016108bc565b91505092915050565b60008115159050919050565b610913816108fe565b82525050565b600060208201905061092e600083018461090a565b92915050565b600081519050919050565b600082825260208201905092915050565b60005b8381101561096e578082015181840152602081019050610953565b60008484015250505050565b6000601f19601f8301169050919050565b600061099682610934565b6109a0818561093f565b93506109b0818560208601610950565b6109b98161097a565b840191505092915050565b600060208201905081810360008301526109de818461098b565b905092915050565b6000819050919050565b6109f9816109e6565b82525050565b6000602082019050610a1460008301846109f0565b92915050565b600073ffffffffffffffffffffffffffffffffffffffff82169050919050565b6000610a4582610a1a565b9050919050565b610a5581610a3a565b8114610a6057600080fd5b50565b600081359050610a7281610a4c565b92915050565b610a81816109e6565b8114610a8c57600080fd5b50565b600081359050610a9e81610a78565b92915050565b600080600060608486031215610abd57610abc610874565b5b6000610acb86828701610a63565b9350506020610adc86828701610a63565b9250506040610aed86828701610a8f565b9150509250925092565b60008060408385031215610b0e57610b0d610874565b5b6000610b1c85828601610a63565b9250506020610b2d85828601610a8f565b9150509250929050565b600060208284031215610b4d57610b4c610874565b5b6000610b5b84828501610a8f565b91505092915050565b610b6d81610a3a565b82525050565b6000602082019050610b886000830184610b64565b92915050565b600060208284031215610ba457610ba3610874565b5b6000610bb284828501610a63565b91505092915050565b7f4e487b7100000000000000000000000000000000000000000000000000000000600052602260045260246000fd5b60006002820490506001821680610c0257607f821691505b602082108103610c1557610c14610bbb565b5b50919050565b7f4f776e657220696e646578206973206f7574206f6620626f756e64732e000000600082015250565b6000610c51601d8361093f565b9150610c5c82610c1b565b602082019050919050565b60006020820190508181036000830152610c8081610c44565b9050919050565b7f4e487b7100000000000000000000000000000000000000000000000000000000600052603260045260246000fd5b7f476c6f62616c20696e646578206973206f7574206f6620626f756e64732e0000600082015250565b6000610cec601e8361093f565b9150610cf782610cb6565b602082019050919050565b60006020820190508181036000830152610d1b81610cdf565b9050919050565b7f4f776e657220717565727920666f72206e6f6e2d6578697374656e7420746f6b60008201527f656e000000000000000000000000000000000000000000000000000000000000602082015250565b6000610d7e60228361093f565b9150610d8982610d22565b604082019050919050565b60006020820190508181036000830152610dad81610d71565b9050919050565b7f4552433732313a205472616e7366657220746f20746865207a65726f2061646460008201527f7265737300000000000000000000000000000000000000000000000000000000602082015250565b6000610e1060248361093f565b9150610e1b82610db4565b604082019050919050565b60006020820190508181036000830152610e3f81610e03565b9050919050565b7f4552433732313a20547279696e6720746f207472616e73666572206120746f6b60008201527f656e207468617420746865206164647265737320646f6573206e6f74206f776e602082015250565b6000610ea260408361093f565b9150610ead82610e46565b604082019050919050565b60006020820190508181036000830152610ed181610e95565b9050919050565b7f4e487b7100000000000000000000000000000000000000000000000000000000600052601160045260246000fd5b6000610f12826109e6565b9150610f1d836109e6565b9250828203905081811115610f3557610f34610ed8565b5b92915050565b6000610f46826109e6565b9150610f51836109e6565b9250828201905080821115610f6957610f68610ed8565b5b9291505056fea264697066735822122087b7b78ec1851d2b856a5f893d40f41ba45a990b8f96d334c0bee855d252a47964736f6c63430008110033",
  "immutableReferences": {},
  "source": "// SPDX-License-Identifier: MIT\r\npragma solidity ^0.8.0;\r\nimport \"./ERC721Metadata.sol\";\r\nimport \"./ERC721Enumerable.sol\";\r\n\r\ncontract ERC721Connector is ERC721Metadata, ERC721Enumerable {\r\n    constructor(string memory name, string memory symbol)\r\n        ERC721Metadata(name, symbol)\r\n    {}\r\n}\r\n",
  "sourcePath": "/home/valdrighdev/projects/nft-marketplace-starter-kit/src/contracts/ERC721Connector.sol",
  "compiler": {
    "name": "solc",
    "version": "0.8.17+commit.8df45f5f.Emscripten.clang"
  },
  "schemaVersion": "3.4.10",
  "updatedAt": "2022-09-26T17:28:18.537Z",
  "devdoc": {
    "kind": "dev",
    "methods": {},
    "version": 1
  },
  "userdoc": {
    "kind": "user",
    "methods": {},
    "version": 1
  }
}