{
  "contractName": "KryptoArt",
  "abi": [
    {
      "inputs": [],
      "stateMutability": "nonpayable",
      "type": "constructor"
    },
    {
      "anonymous": false,
      "inputs": [
        {
          "indexed": true,
          "internalType": "address",
          "name": "_owner",
          "type": "address"
        },
        {
          "indexed": true,
          "internalType": "address",
          "name": "_approved",
          "type": "address"
        },
        {
          "indexed": true,
          "internalType": "uint256",
          "name": "_tokenId",
          "type": "uint256"
        }
      ],
      "name": "Approval",
      "type": "event"
    },
    {
      "anonymous": false,
      "inputs": [
        {
          "indexed": true,
          "internalType": "address",
          "name": "_from",
          "type": "address"
        },
        {
          "indexed": true,
          "internalType": "address",
          "name": "_to",
          "type": "address"
        },
        {
          "indexed": true,
          "internalType": "uint256",
          "name": "_tokenId",
          "type": "uint256"
        }
      ],
      "name": "Transfer",
      "type": "event"
    },
    {
      "inputs": [
        {
          "internalType": "address",
          "name": "_owner",
          "type": "address"
        }
      ],
      "name": "balanceOf",
      "outputs": [
        {
          "internalType": "uint256",
          "name": "",
          "type": "uint256"
        }
      ],
      "stateMutability": "view",
      "type": "function",
      "constant": true
    },
    {
      "inputs": [
        {
          "internalType": "uint256",
          "name": "",
          "type": "uint256"
        }
      ],
      "name": "kryptoArtz",
      "outputs": [
        {
          "internalType": "string",
          "name": "",
          "type": "string"
        }
      ],
      "stateMutability": "view",
      "type": "function",
      "constant": true
    },
    {
      "inputs": [],
      "name": "name",
      "outputs": [
        {
          "internalType": "string",
          "name": "",
          "type": "string"
        }
      ],
      "stateMutability": "view",
      "type": "function",
      "constant": true
    },
    {
      "inputs": [
        {
          "internalType": "uint256",
          "name": "_tokenId",
          "type": "uint256"
        }
      ],
      "name": "ownerOf",
      "outputs": [
        {
          "internalType": "address",
          "name": "",
          "type": "address"
        }
      ],
      "stateMutability": "view",
      "type": "function",
      "constant": true
    },
    {
      "inputs": [
        {
          "internalType": "bytes4",
          "name": "interfaceID",
          "type": "bytes4"
        }
      ],
      "name": "supportsInterface",
      "outputs": [
        {
          "internalType": "bool",
          "name": "",
          "type": "bool"
        }
      ],
      "stateMutability": "view",
      "type": "function",
      "constant": true
    },
    {
      "inputs": [],
      "name": "symbol",
      "outputs": [
        {
          "internalType": "string",
          "name": "",
          "type": "string"
        }
      ],
      "stateMutability": "view",
      "type": "function",
      "constant": true
    },
    {
      "inputs": [
        {
          "internalType": "uint256",
          "name": "index",
          "type": "uint256"
        }
      ],
      "name": "tokenByIndex",
      "outputs": [
        {
          "internalType": "uint256",
          "name": "",
          "type": "uint256"
        }
      ],
      "stateMutability": "view",
      "type": "function",
      "constant": true
    },
    {
      "inputs": [
        {
          "internalType": "address",
          "name": "owner",
          "type": "address"
        },
        {
          "internalType": "uint256",
          "name": "index",
          "type": "uint256"
        }
      ],
      "name": "tokenOfOwnerByIndex",
      "outputs": [
        {
          "internalType": "uint256",
          "name": "",
          "type": "uint256"
        }
      ],
      "stateMutability": "view",
      "type": "function",
      "constant": true
    },
    {
      "inputs": [],
      "name": "totalSupply",
      "outputs": [
        {
          "internalType": "uint256",
          "name": "",
          "type": "uint256"
        }
      ],
      "stateMutability": "view",
      "type": "function",
      "constant": true
    },
    {
      "inputs": [
        {
          "internalType": "address",
          "name": "_from",
          "type": "address"
        },
        {
          "internalType": "address",
          "name": "_to",
          "type": "address"
        },
        {
          "internalType": "uint256",
          "name": "_tokenId",
          "type": "uint256"
        }
      ],
      "name": "transferFrom",
      "outputs": [],
      "stateMutability": "nonpayable",
      "type": "function"
    },
    {
      "inputs": [
        {
          "internalType": "string",
          "name": "_kryptoArt",
          "type": "string"
        }
      ],
      "name": "mint",
      "outputs": [],
      "stateMutability": "nonpayable",
      "type": "function"
    }
  ],
  "bytecode": "0x60806040523480156200001157600080fd5b506040518060400160405280600981526020017f4b727970746f41727400000000000000000000000000000000000000000000008152506040518060400160405280600581526020017f4b4152545a0000000000000000000000000000000000000000000000000000008152508181620000b17f01ffc9a7a5cef8baa21ed3c5c0d7e23accb804b619e9333b597f47a0d84076e26200021c60201b60201c565b620001047f13b182f4c0e5b2efbac0efe6cf6d756c8b89f4b79c5707a043ed9ea740574ee97f7feaf19471f34a12a7eaf32d5f3090aa2260ea8624dc8a138e74e0bf0f623076186200021c60201b60201c565b81600190816200011591906200056d565b5080600290816200012791906200056d565b5050506200019f7f22c82707ba960a14c7592ffb6b8cfaa073fed0048a84cc7fa41f6b5bd8e7f2e47f3a6eb71757dfc6e784c1459d26270140c2c147d95ca985c80026fc5301c3eca17f8a7e378434598edc36d108689a030cbc9d7d465de4f74c71bae1028eed6a881b18186200021c60201b60201c565b620002147f8230223f691b981717299fae9549350a0d894555723531f02108b1f522c1a7977f6da5e1284143cdd2d15038a59bde3be031250f00291d64494c12d967b3a4e0c37fc53637662700e6c65104059db8bba34439e0c32483ab7c34e3ccae52c739549518186200021c60201b60201c565b5050620006fd565b63ffffffff60e01b817bffffffffffffffffffffffffffffffffffffffffffffffffffffffff19160362000287576040517f08c379a00000000000000000000000000000000000000000000000000000000081526004016200027e90620006db565b60405180910390fd5b6001600080837bffffffffffffffffffffffffffffffffffffffffffffffffffffffff19167bffffffffffffffffffffffffffffffffffffffffffffffffffffffff1916815260200190815260200160002060006101000a81548160ff02191690831515021790555050565b600081519050919050565b7f4e487b7100000000000000000000000000000000000000000000000000000000600052604160045260246000fd5b7f4e487b7100000000000000000000000000000000000000000000000000000000600052602260045260246000fd5b600060028204905060018216806200037557607f821691505b6020821081036200038b576200038a6200032d565b5b50919050565b60008190508160005260206000209050919050565b60006020601f8301049050919050565b600082821b905092915050565b600060088302620003f57fffffffffffffffffffffffffffffffffffffffffffffffffffffffffffffffff82620003b6565b620004018683620003b6565b95508019841693508086168417925050509392505050565b6000819050919050565b6000819050919050565b60006200044e62000448620004428462000419565b62000423565b62000419565b9050919050565b6000819050919050565b6200046a836200042d565b62000482620004798262000455565b848454620003c3565b825550505050565b600090565b620004996200048a565b620004a68184846200045f565b505050565b5b81811015620004ce57620004c26000826200048f565b600181019050620004ac565b5050565b601f8211156200051d57620004e78162000391565b620004f284620003a6565b8101602085101562000502578190505b6200051a6200051185620003a6565b830182620004ab565b50505b505050565b600082821c905092915050565b6000620005426000198460080262000522565b1980831691505092915050565b60006200055d83836200052f565b9150826002028217905092915050565b6200057882620002f3565b67ffffffffffffffff811115620005945762000593620002fe565b5b620005a082546200035c565b620005ad828285620004d2565b600060209050601f831160018114620005e55760008415620005d0578287015190505b620005dc85826200054f565b8655506200064c565b601f198416620005f58662000391565b60005b828110156200061f57848901518255600182019150602085019450602081019050620005f8565b868310156200063f57848901516200063b601f8916826200052f565b8355505b6001600288020188555050505b505050505050565b600082825260208201905092915050565b7f4552433136353a20496e76616c696420696e746572666163652072657175657360008201527f7400000000000000000000000000000000000000000000000000000000000000602082015250565b6000620006c360218362000654565b9150620006d08262000665565b604082019050919050565b60006020820190508181036000830152620006f681620006b4565b9050919050565b611ad8806200070d6000396000f3fe608060405234801561001057600080fd5b50600436106100a95760003560e01c80634f6ccce7116100715780634f6ccce7146101665780636352211e1461019657806370a08231146101c657806395d89b41146101f6578063bf10ca7b14610214578063d85d3d2714610244576100a9565b806301ffc9a7146100ae57806306fdde03146100de57806318160ddd146100fc57806323b872dd1461011a5780632f745c5914610136575b600080fd5b6100c860048036038101906100c39190610e4b565b610260565b6040516100d59190610e93565b60405180910390f35b6100e66102c7565b6040516100f39190610f3e565b60405180910390f35b610104610359565b6040516101119190610f79565b60405180910390f35b610134600480360381019061012f919061101e565b610366565b005b610150600480360381019061014b9190611071565b610376565b60405161015d9190610f79565b60405180910390f35b610180600480360381019061017b91906110b1565b610426565b60405161018d9190610f79565b60405180910390f35b6101b060048036038101906101ab91906110b1565b610497565b6040516101bd91906110ed565b60405180910390f35b6101e060048036038101906101db9190611108565b610548565b6040516101ed9190610f79565b60405180910390f35b6101fe6105ff565b60405161020b9190610f3e565b60405180910390f35b61022e600480360381019061022991906110b1565b610691565b60405161023b9190610f3e565b60405180910390f35b61025e6004803603810190610259919061126a565b61073d565b005b6000806000837bffffffffffffffffffffffffffffffffffffffffffffffffffffffff19167bffffffffffffffffffffffffffffffffffffffffffffffffffffffff1916815260200190815260200160002060009054906101000a900460ff169050919050565b6060600180546102d6906112e2565b80601f0160208091040260200160405190810160405280929190818152602001828054610302906112e2565b801561034f5780601f106103245761010080835404028352916020019161034f565b820191906000526020600020905b81548152906001019060200180831161033257829003601f168201915b5050505050905090565b6000600680549050905090565b610371838383610839565b505050565b600061038183610548565b82106103c2576040517f08c379a00000000000000000000000000000000000000000000000000000000081526004016103b99061135f565b60405180910390fd5b600860008473ffffffffffffffffffffffffffffffffffffffff1673ffffffffffffffffffffffffffffffffffffffff16815260200190815260200160002082815481106104135761041261137f565b5b9060005260206000200154905092915050565b6000610430610359565b8210610471576040517f08c379a0000000000000000000000000000000000000000000000000000000008152600401610468906113fa565b60405180910390fd5b600682815481106104855761048461137f565b5b90600052602060002001549050919050565b6000806003600084815260200190815260200160002060009054906101000a900473ffffffffffffffffffffffffffffffffffffffff169050600073ffffffffffffffffffffffffffffffffffffffff168173ffffffffffffffffffffffffffffffffffffffff160361053f576040517f08c379a00000000000000000000000000000000000000000000000000000000081526004016105369061148c565b60405180910390fd5b80915050919050565b60008073ffffffffffffffffffffffffffffffffffffffff168273ffffffffffffffffffffffffffffffffffffffff16036105b8576040517f08c379a00000000000000000000000000000000000000000000000000000000081526004016105af9061148c565b60405180910390fd5b600460008373ffffffffffffffffffffffffffffffffffffffff1673ffffffffffffffffffffffffffffffffffffffff168152602001908152602001600020549050919050565b60606002805461060e906112e2565b80601f016020809104026020016040519081016040528092919081815260200182805461063a906112e2565b80156106875780601f1061065c57610100808354040283529160200191610687565b820191906000526020600020905b81548152906001019060200180831161066a57829003601f168201915b5050505050905090565b600a81815481106106a157600080fd5b9060005260206000200160009150905080546106bc906112e2565b80601f01602080910402602001604051908101604052809291908181526020018280546106e8906112e2565b80156107355780601f1061070a57610100808354040283529160200191610735565b820191906000526020600020905b81548152906001019060200180831161071857829003601f168201915b505050505081565b600b8160405161074d91906114e8565b908152602001604051809103902060009054906101000a900460ff16156107a9576040517f08c379a00000000000000000000000000000000000000000000000000000000081526004016107a09061154b565b60405180910390fd5b600a819080600181540180825580915050600190039060005260206000200160009091909190915090816107dd9190611717565b5060006001600a805490506107f29190611818565b90506107fe3382610a7e565b6001600b8360405161081091906114e8565b908152602001604051809103902060006101000a81548160ff0219169083151502179055505050565b600073ffffffffffffffffffffffffffffffffffffffff168273ffffffffffffffffffffffffffffffffffffffff16036108a8576040517f08c379a000000000000000000000000000000000000000000000000000000000815260040161089f906118be565b60405180910390fd5b8273ffffffffffffffffffffffffffffffffffffffff166108c882610497565b73ffffffffffffffffffffffffffffffffffffffff161461091e576040517f08c379a000000000000000000000000000000000000000000000000000000000815260040161091590611950565b60405180910390fd5b816003600083815260200190815260200160002060006101000a81548173ffffffffffffffffffffffffffffffffffffffff021916908373ffffffffffffffffffffffffffffffffffffffff1602179055506001600460008573ffffffffffffffffffffffffffffffffffffffff1673ffffffffffffffffffffffffffffffffffffffff16815260200190815260200160002060008282546109c09190611818565b925050819055506001600460008473ffffffffffffffffffffffffffffffffffffffff1673ffffffffffffffffffffffffffffffffffffffff1681526020019081526020016000206000828254610a179190611970565b92505081905550808273ffffffffffffffffffffffffffffffffffffffff168473ffffffffffffffffffffffffffffffffffffffff167fddf252ad1be2c89b69c2b068fc378daa952ba7f163c4a11628f55a4df523b3ef60405160405180910390a4505050565b610a888282610a9f565b610a9181610c60565b610a9b8282610ca9565b5050565b600073ffffffffffffffffffffffffffffffffffffffff168273ffffffffffffffffffffffffffffffffffffffff1603610b0e576040517f08c379a0000000000000000000000000000000000000000000000000000000008152600401610b0590611a16565b60405180910390fd5b610b1781610d6d565b15610b57576040517f08c379a0000000000000000000000000000000000000000000000000000000008152600401610b4e90611a82565b60405180910390fd5b816003600083815260200190815260200160002060006101000a81548173ffffffffffffffffffffffffffffffffffffffff021916908373ffffffffffffffffffffffffffffffffffffffff1602179055506001600460008473ffffffffffffffffffffffffffffffffffffffff1673ffffffffffffffffffffffffffffffffffffffff1681526020019081526020016000206000828254610bf99190611970565b92505081905550808273ffffffffffffffffffffffffffffffffffffffff16600073ffffffffffffffffffffffffffffffffffffffff167fddf252ad1be2c89b69c2b068fc378daa952ba7f163c4a11628f55a4df523b3ef60405160405180910390a45050565b6006805490506007600083815260200190815260200160002081905550600681908060018154018082558091505060019003906000526020600020016000909190919091505550565b600860008373ffffffffffffffffffffffffffffffffffffffff1673ffffffffffffffffffffffffffffffffffffffff168152602001908152602001600020819080600181540180825580915050600190039060005260206000200160009091909190915055600860008373ffffffffffffffffffffffffffffffffffffffff1673ffffffffffffffffffffffffffffffffffffffff1681526020019081526020016000208054905060096000838152602001908152602001600020819055505050565b6000806003600084815260200190815260200160002060009054906101000a900473ffffffffffffffffffffffffffffffffffffffff169050600073ffffffffffffffffffffffffffffffffffffffff168173ffffffffffffffffffffffffffffffffffffffff161415915050919050565b6000604051905090565b600080fd5b600080fd5b60007fffffffff0000000000000000000000000000000000000000000000000000000082169050919050565b610e2881610df3565b8114610e3357600080fd5b50565b600081359050610e4581610e1f565b92915050565b600060208284031215610e6157610e60610de9565b5b6000610e6f84828501610e36565b91505092915050565b60008115159050919050565b610e8d81610e78565b82525050565b6000602082019050610ea86000830184610e84565b92915050565b600081519050919050565b600082825260208201905092915050565b60005b83811015610ee8578082015181840152602081019050610ecd565b60008484015250505050565b6000601f19601f8301169050919050565b6000610f1082610eae565b610f1a8185610eb9565b9350610f2a818560208601610eca565b610f3381610ef4565b840191505092915050565b60006020820190508181036000830152610f588184610f05565b905092915050565b6000819050919050565b610f7381610f60565b82525050565b6000602082019050610f8e6000830184610f6a565b92915050565b600073ffffffffffffffffffffffffffffffffffffffff82169050919050565b6000610fbf82610f94565b9050919050565b610fcf81610fb4565b8114610fda57600080fd5b50565b600081359050610fec81610fc6565b92915050565b610ffb81610f60565b811461100657600080fd5b50565b60008135905061101881610ff2565b92915050565b60008060006060848603121561103757611036610de9565b5b600061104586828701610fdd565b935050602061105686828701610fdd565b925050604061106786828701611009565b9150509250925092565b6000806040838503121561108857611087610de9565b5b600061109685828601610fdd565b92505060206110a785828601611009565b9150509250929050565b6000602082840312156110c7576110c6610de9565b5b60006110d584828501611009565b91505092915050565b6110e781610fb4565b82525050565b600060208201905061110260008301846110de565b92915050565b60006020828403121561111e5761111d610de9565b5b600061112c84828501610fdd565b91505092915050565b600080fd5b600080fd5b7f4e487b7100000000000000000000000000000000000000000000000000000000600052604160045260246000fd5b61117782610ef4565b810181811067ffffffffffffffff821117156111965761119561113f565b5b80604052505050565b60006111a9610ddf565b90506111b5828261116e565b919050565b600067ffffffffffffffff8211156111d5576111d461113f565b5b6111de82610ef4565b9050602081019050919050565b82818337600083830152505050565b600061120d611208846111ba565b61119f565b9050828152602081018484840111156112295761122861113a565b5b6112348482856111eb565b509392505050565b600082601f83011261125157611250611135565b5b81356112618482602086016111fa565b91505092915050565b6000602082840312156112805761127f610de9565b5b600082013567ffffffffffffffff81111561129e5761129d610dee565b5b6112aa8482850161123c565b91505092915050565b7f4e487b7100000000000000000000000000000000000000000000000000000000600052602260045260246000fd5b600060028204905060018216806112fa57607f821691505b60208210810361130d5761130c6112b3565b5b50919050565b7f4f776e657220696e646578206973206f7574206f6620626f756e64732e000000600082015250565b6000611349601d83610eb9565b915061135482611313565b602082019050919050565b600060208201905081810360008301526113788161133c565b9050919050565b7f4e487b7100000000000000000000000000000000000000000000000000000000600052603260045260246000fd5b7f476c6f62616c20696e646578206973206f7574206f6620626f756e64732e0000600082015250565b60006113e4601e83610eb9565b91506113ef826113ae565b602082019050919050565b60006020820190508181036000830152611413816113d7565b9050919050565b7f4f776e657220717565727920666f72206e6f6e2d6578697374656e7420746f6b60008201527f656e000000000000000000000000000000000000000000000000000000000000602082015250565b6000611476602283610eb9565b91506114818261141a565b604082019050919050565b600060208201905081810360008301526114a581611469565b9050919050565b600081905092915050565b60006114c282610eae565b6114cc81856114ac565b93506114dc818560208601610eca565b80840191505092915050565b60006114f482846114b7565b915081905092915050565b7f4572726f72202d204b727970746f41727420616c726561647920657869737473600082015250565b6000611535602083610eb9565b9150611540826114ff565b602082019050919050565b6000602082019050818103600083015261156481611528565b9050919050565b60008190508160005260206000209050919050565b60006020601f8301049050919050565b600082821b905092915050565b6000600883026115cd7fffffffffffffffffffffffffffffffffffffffffffffffffffffffffffffffff82611590565b6115d78683611590565b95508019841693508086168417925050509392505050565b6000819050919050565b600061161461160f61160a84610f60565b6115ef565b610f60565b9050919050565b6000819050919050565b61162e836115f9565b61164261163a8261161b565b84845461159d565b825550505050565b600090565b61165761164a565b611662818484611625565b505050565b5b818110156116865761167b60008261164f565b600181019050611668565b5050565b601f8211156116cb5761169c8161156b565b6116a584611580565b810160208510156116b4578190505b6116c86116c085611580565b830182611667565b50505b505050565b600082821c905092915050565b60006116ee600019846008026116d0565b1980831691505092915050565b600061170783836116dd565b9150826002028217905092915050565b61172082610eae565b67ffffffffffffffff8111156117395761173861113f565b5b61174382546112e2565b61174e82828561168a565b600060209050601f831160018114611781576000841561176f578287015190505b61177985826116fb565b8655506117e1565b601f19841661178f8661156b565b60005b828110156117b757848901518255600182019150602085019450602081019050611792565b868310156117d457848901516117d0601f8916826116dd565b8355505b6001600288020188555050505b505050505050565b7f4e487b7100000000000000000000000000000000000000000000000000000000600052601160045260246000fd5b600061182382610f60565b915061182e83610f60565b9250828203905081811115611846576118456117e9565b5b92915050565b7f4552433732313a205472616e7366657220746f20746865207a65726f2061646460008201527f7265737300000000000000000000000000000000000000000000000000000000602082015250565b60006118a8602483610eb9565b91506118b38261184c565b604082019050919050565b600060208201905081810360008301526118d78161189b565b9050919050565b7f4552433732313a20547279696e6720746f207472616e73666572206120746f6b60008201527f656e207468617420746865206164647265737320646f6573206e6f74206f776e602082015250565b600061193a604083610eb9565b9150611945826118de565b604082019050919050565b600060208201905081810360008301526119698161192d565b9050919050565b600061197b82610f60565b915061198683610f60565b925082820190508082111561199e5761199d6117e9565b5b92915050565b7f4552433732313a206d696e74696e6720746f20746865207a65726f206164647260008201527f6573730000000000000000000000000000000000000000000000000000000000602082015250565b6000611a00602383610eb9565b9150611a0b826119a4565b604082019050919050565b60006020820190508181036000830152611a2f816119f3565b9050919050565b7f4552433732313a20746f6b656e20616c7265616479206d696e74656400000000600082015250565b6000611a6c601c83610eb9565b9150611a7782611a36565b602082019050919050565b60006020820190508181036000830152611a9b81611a5f565b905091905056fea26469706673582212209da6bbe49ebafb7243980f42f7dbfb7a700dfd4a8461b8a46e40f8c0f8984b8164736f6c63430008110033",
  "immutableReferences": {},
  "source": "// SPDX-License-Identifier: MIT\r\npragma solidity ^0.8.0;\r\nimport \"./ERC721Connector.sol\";\r\n\r\ncontract KryptoArt is ERC721Connector {\r\n    string[] public kryptoArtz;\r\n\r\n    mapping(string => bool) _kryptoArtzExists;\r\n\r\n    function mint(string memory _kryptoArt) public {\r\n        require(\r\n            !_kryptoArtzExists[_kryptoArt],\r\n            \"Error - KryptoArt already exists\"\r\n        );\r\n\r\n        kryptoArtz.push(_kryptoArt);\r\n        uint256 _id = kryptoArtz.length - 1;\r\n\r\n        _mint(msg.sender, _id);\r\n        _kryptoArtzExists[_kryptoArt] = true;\r\n    }\r\n\r\n    constructor() ERC721Connector(\"KryptoArt\", \"KARTZ\") {}\r\n}\r\n",
  "sourcePath": "/home/valdrighdev/projects/nft-marketplace-starter-kit/src/contracts/KryptoArtz.sol",
  "compiler": {
    "name": "solc",
    "version": "0.8.17+commit.8df45f5f.Emscripten.clang"
  },
  "schemaVersion": "3.4.10",
  "updatedAt": "2022-09-29T18:43:30.888Z",
  "networkType": "ethereum",
  "devdoc": {
    "kind": "dev",
    "methods": {},
    "version": 1
  },
  "userdoc": {
    "kind": "user",
    "methods": {},
    "version": 1
  }
}